:020000040000FA
:06000000F7EF00F0120012
:020006000000F8
:08000800D38CD38AD3889280C7
:100010009282928492869396939493929390959ED3
:10002000959C959A9598C29AC298C296C294C19A84
:10003000C198C186C184C182C190C09EC08AC09847
:10004000C086C084C092C080C28080A21DD080B40F
:1000500005D0818681848182818007D080A405D0EB
:10006000819681948192819000D080B605D0838E54
:10007000838C838A838807D080A605D0839E839C47
:10008000839A839800D00AD080B208D0C282C2B2CC
:10009000FED7C450E66E04D8E55200D0D6D7120081
:1000A000D9CFE6FFE1CFD9FFFE0EDB50800B8008F1
:1000B00002E1838801D08398FE0EDB50400B40089C
:1000C00002E1838A01D0839AFE0EDB50200B2008C8
:1000D00002E1838C01D0839CFE0EDB50100B1008D4
:1000E00002E1838E01D0839EFE0EDB50080B0808D0
:1000F00002E1818001D08190FE0EDB50040B0408E8
:1001000002E1818201D08192FE0EDB50020B0208D7
:1001100002E1818401D08194FE0EDB50010B0108C5
:1001200002E1818601D08196E552E7CFD9FF120026
:10013000060EF66E000EF76E000EF86E0001090056
:10014000F550656F0900F550666F03E1656701D0F2
:100150003DD00900F550606F0900F550616F09004E
:10016000F550626F09000900F550E96E0900F5507D
:10017000EA6E090009000900F550636F0900F550A7
:10018000646F09000900F6CF67F0F7CF68F0F8CF89
:1001900069F060C0F6FF61C0F7FF62C0F8FF0001C0
:1001A000635302E1645307E00900F550EE6E630704
:1001B000F8E26407F9D767C0F6FF68C0F7FF69C0C7
:0E01C000F8FF00016507000E665BBFD7120056
:0201CE00000E21
:1001D000F36E00EE00F0080E01D81200EA6002D0C3
:0E01E000EE6AFCD7F350E9601200EE6AFCD71D
:0201EE0013EE0E
:1001F00000F023EE00F0F86A019C98EC00F005ECAA
:0A02000001F004EC00F0FBD712003F
:02020A001200E0
:020000040030CA
:0100000024DB
:0100010008F6
:0100020019E4
:010003001EDE
:0100050001F9
:010006008178
:010008000FE8
:01000900C036
:01000A000FE6
:01000B00E014
:01000C000FE4
:01000D0040B2
:00000001FF
